{
  "_format": "hh-sol-artifact-1",
  "contractName": "Collectibles",
  "sourceName": "contracts/Collectibles.sol",
  "abi": [
    {
      "inputs": [],
      "stateMutability": "nonpayable",
      "type": "constructor"
    },
    {
      "inputs": [
        {
          "internalType": "address",
          "name": "sender",
          "type": "address"
        },
        {
          "internalType": "uint256",
          "name": "tokenId",
          "type": "uint256"
        },
        {
          "internalType": "address",
          "name": "owner",
          "type": "address"
        }
      ],
      "name": "ERC721IncorrectOwner",
      "type": "error"
    },
    {
      "inputs": [
        {
          "internalType": "address",
          "name": "operator",
          "type": "address"
        },
        {
          "internalType": "uint256",
          "name": "tokenId",
          "type": "uint256"
        }
      ],
      "name": "ERC721InsufficientApproval",
      "type": "error"
    },
    {
      "inputs": [
        {
          "internalType": "address",
          "name": "approver",
          "type": "address"
        }
      ],
      "name": "ERC721InvalidApprover",
      "type": "error"
    },
    {
      "inputs": [
        {
          "internalType": "address",
          "name": "operator",
          "type": "address"
        }
      ],
      "name": "ERC721InvalidOperator",
      "type": "error"
    },
    {
      "inputs": [
        {
          "internalType": "address",
          "name": "owner",
          "type": "address"
        }
      ],
      "name": "ERC721InvalidOwner",
      "type": "error"
    },
    {
      "inputs": [
        {
          "internalType": "address",
          "name": "receiver",
          "type": "address"
        }
      ],
      "name": "ERC721InvalidReceiver",
      "type": "error"
    },
    {
      "inputs": [
        {
          "internalType": "address",
          "name": "sender",
          "type": "address"
        }
      ],
      "name": "ERC721InvalidSender",
      "type": "error"
    },
    {
      "inputs": [
        {
          "internalType": "uint256",
          "name": "tokenId",
          "type": "uint256"
        }
      ],
      "name": "ERC721NonexistentToken",
      "type": "error"
    },
    {
      "anonymous": false,
      "inputs": [
        {
          "indexed": true,
          "internalType": "address",
          "name": "owner",
          "type": "address"
        },
        {
          "indexed": true,
          "internalType": "address",
          "name": "approved",
          "type": "address"
        },
        {
          "indexed": true,
          "internalType": "uint256",
          "name": "tokenId",
          "type": "uint256"
        }
      ],
      "name": "Approval",
      "type": "event"
    },
    {
      "anonymous": false,
      "inputs": [
        {
          "indexed": true,
          "internalType": "address",
          "name": "owner",
          "type": "address"
        },
        {
          "indexed": true,
          "internalType": "address",
          "name": "operator",
          "type": "address"
        },
        {
          "indexed": false,
          "internalType": "bool",
          "name": "approved",
          "type": "bool"
        }
      ],
      "name": "ApprovalForAll",
      "type": "event"
    },
    {
      "anonymous": false,
      "inputs": [
        {
          "indexed": false,
          "internalType": "uint256",
          "name": "_fromTokenId",
          "type": "uint256"
        },
        {
          "indexed": false,
          "internalType": "uint256",
          "name": "_toTokenId",
          "type": "uint256"
        }
      ],
      "name": "BatchMetadataUpdate",
      "type": "event"
    },
    {
      "anonymous": false,
      "inputs": [
        {
          "indexed": false,
          "internalType": "uint256",
          "name": "_tokenId",
          "type": "uint256"
        }
      ],
      "name": "MetadataUpdate",
      "type": "event"
    },
    {
      "anonymous": false,
      "inputs": [
        {
          "indexed": true,
          "internalType": "address",
          "name": "from",
          "type": "address"
        },
        {
          "indexed": true,
          "internalType": "address",
          "name": "to",
          "type": "address"
        },
        {
          "indexed": true,
          "internalType": "uint256",
          "name": "tokenId",
          "type": "uint256"
        }
      ],
      "name": "Transfer",
      "type": "event"
    },
    {
      "inputs": [
        {
          "internalType": "address",
          "name": "to",
          "type": "address"
        },
        {
          "internalType": "uint256",
          "name": "tokenId",
          "type": "uint256"
        }
      ],
      "name": "approve",
      "outputs": [],
      "stateMutability": "nonpayable",
      "type": "function"
    },
    {
      "inputs": [
        {
          "internalType": "address",
          "name": "owner",
          "type": "address"
        }
      ],
      "name": "balanceOf",
      "outputs": [
        {
          "internalType": "uint256",
          "name": "",
          "type": "uint256"
        }
      ],
      "stateMutability": "view",
      "type": "function"
    },
    {
      "inputs": [
        {
          "internalType": "uint256",
          "name": "tokenId",
          "type": "uint256"
        }
      ],
      "name": "burn",
      "outputs": [],
      "stateMutability": "nonpayable",
      "type": "function"
    },
    {
      "inputs": [
        {
          "internalType": "uint256",
          "name": "tokenId",
          "type": "uint256"
        }
      ],
      "name": "getApproved",
      "outputs": [
        {
          "internalType": "address",
          "name": "",
          "type": "address"
        }
      ],
      "stateMutability": "view",
      "type": "function"
    },
    {
      "inputs": [
        {
          "internalType": "address",
          "name": "owner",
          "type": "address"
        },
        {
          "internalType": "address",
          "name": "operator",
          "type": "address"
        }
      ],
      "name": "isApprovedForAll",
      "outputs": [
        {
          "internalType": "bool",
          "name": "",
          "type": "bool"
        }
      ],
      "stateMutability": "view",
      "type": "function"
    },
    {
      "inputs": [
        {
          "internalType": "string",
          "name": "tokenURI",
          "type": "string"
        }
      ],
      "name": "mint",
      "outputs": [
        {
          "internalType": "uint256",
          "name": "",
          "type": "uint256"
        }
      ],
      "stateMutability": "nonpayable",
      "type": "function"
    },
    {
      "inputs": [],
      "name": "name",
      "outputs": [
        {
          "internalType": "string",
          "name": "",
          "type": "string"
        }
      ],
      "stateMutability": "view",
      "type": "function"
    },
    {
      "inputs": [
        {
          "internalType": "uint256",
          "name": "tokenId",
          "type": "uint256"
        }
      ],
      "name": "ownerOf",
      "outputs": [
        {
          "internalType": "address",
          "name": "",
          "type": "address"
        }
      ],
      "stateMutability": "view",
      "type": "function"
    },
    {
      "inputs": [
        {
          "internalType": "address",
          "name": "from",
          "type": "address"
        },
        {
          "internalType": "address",
          "name": "to",
          "type": "address"
        },
        {
          "internalType": "uint256",
          "name": "tokenId",
          "type": "uint256"
        }
      ],
      "name": "safeTransferFrom",
      "outputs": [],
      "stateMutability": "nonpayable",
      "type": "function"
    },
    {
      "inputs": [
        {
          "internalType": "address",
          "name": "from",
          "type": "address"
        },
        {
          "internalType": "address",
          "name": "to",
          "type": "address"
        },
        {
          "internalType": "uint256",
          "name": "tokenId",
          "type": "uint256"
        },
        {
          "internalType": "bytes",
          "name": "data",
          "type": "bytes"
        }
      ],
      "name": "safeTransferFrom",
      "outputs": [],
      "stateMutability": "nonpayable",
      "type": "function"
    },
    {
      "inputs": [
        {
          "internalType": "address",
          "name": "operator",
          "type": "address"
        },
        {
          "internalType": "bool",
          "name": "approved",
          "type": "bool"
        }
      ],
      "name": "setApprovalForAll",
      "outputs": [],
      "stateMutability": "nonpayable",
      "type": "function"
    },
    {
      "inputs": [
        {
          "internalType": "bytes4",
          "name": "interfaceId",
          "type": "bytes4"
        }
      ],
      "name": "supportsInterface",
      "outputs": [
        {
          "internalType": "bool",
          "name": "",
          "type": "bool"
        }
      ],
      "stateMutability": "view",
      "type": "function"
    },
    {
      "inputs": [],
      "name": "symbol",
      "outputs": [
        {
          "internalType": "string",
          "name": "",
          "type": "string"
        }
      ],
      "stateMutability": "view",
      "type": "function"
    },
    {
      "inputs": [
        {
          "internalType": "uint256",
          "name": "tokenId",
          "type": "uint256"
        }
      ],
      "name": "tokenURI",
      "outputs": [
        {
          "internalType": "string",
          "name": "",
          "type": "string"
        }
      ],
      "stateMutability": "view",
      "type": "function"
    },
    {
      "inputs": [],
      "name": "totalNFTs",
      "outputs": [
        {
          "internalType": "uint256",
          "name": "",
          "type": "uint256"
        }
      ],
      "stateMutability": "view",
      "type": "function"
    },
    {
      "inputs": [
        {
          "internalType": "address",
          "name": "from",
          "type": "address"
        },
        {
          "internalType": "address",
          "name": "to",
          "type": "address"
        },
        {
          "internalType": "uint256",
          "name": "tokenId",
          "type": "uint256"
        }
      ],
      "name": "transferFrom",
      "outputs": [],
      "stateMutability": "nonpayable",
      "type": "function"
    }
  ],
  "bytecode": "0x608060405234801561001057600080fd5b506040518060400160405280600c81526020017f436f6c6c65637469626c657300000000000000000000000000000000000000008152506040518060400160405280600281526020017f4342000000000000000000000000000000000000000000000000000000000000815250816000908161008c91906102fc565b50806001908161009c91906102fc565b50505060006007819055506103ce565b600081519050919050565b7f4e487b7100000000000000000000000000000000000000000000000000000000600052604160045260246000fd5b7f4e487b7100000000000000000000000000000000000000000000000000000000600052602260045260246000fd5b6000600282049050600182168061012d57607f821691505b6020821081036101405761013f6100e6565b5b50919050565b60008190508160005260206000209050919050565b60006020601f8301049050919050565b600082821b905092915050565b6000600883026101a87fffffffffffffffffffffffffffffffffffffffffffffffffffffffffffffffff8261016b565b6101b2868361016b565b95508019841693508086168417925050509392505050565b6000819050919050565b6000819050919050565b60006101f96101f46101ef846101ca565b6101d4565b6101ca565b9050919050565b6000819050919050565b610213836101de565b61022761021f82610200565b848454610178565b825550505050565b600090565b61023c61022f565b61024781848461020a565b505050565b5b8181101561026b57610260600082610234565b60018101905061024d565b5050565b601f8211156102b05761028181610146565b61028a8461015b565b81016020851015610299578190505b6102ad6102a58561015b565b83018261024c565b50505b505050565b600082821c905092915050565b60006102d3600019846008026102b5565b1980831691505092915050565b60006102ec83836102c2565b9150826002028217905092915050565b610305826100ac565b67ffffffffffffffff81111561031e5761031d6100b7565b5b6103288254610115565b61033382828561026f565b600060209050601f8311600181146103665760008415610354578287015190505b61035e85826102e0565b8655506103c6565b601f19841661037486610146565b60005b8281101561039c57848901518255600182019150602085019450602081019050610377565b868310156103b957848901516103b5601f8916826102c2565b8355505b6001600288020188555050505b505050505050565b61256b806103dd6000396000f3fe608060405234801561001057600080fd5b50600436106101005760003560e01c80636352211e11610097578063b88d4fde11610066578063b88d4fde146102ab578063c87b56dd146102c7578063d85d3d27146102f7578063e985e9c51461032757610100565b80636352211e1461021157806370a082311461024157806395d89b4114610271578063a22cb4651461028f57610100565b80630d0e96da116100d35780630d0e96da1461019f57806323b872dd146101bd57806342842e0e146101d957806342966c68146101f557610100565b806301ffc9a71461010557806306fdde0314610135578063081812fc14610153578063095ea7b314610183575b600080fd5b61011f600480360381019061011a919061197e565b610357565b60405161012c91906119c6565b60405180910390f35b61013d6103b8565b60405161014a9190611a71565b60405180910390f35b61016d60048036038101906101689190611ac9565b61044a565b60405161017a9190611b37565b60405180910390f35b61019d60048036038101906101989190611b7e565b610466565b005b6101a761047c565b6040516101b49190611bcd565b60405180910390f35b6101d760048036038101906101d29190611be8565b610486565b005b6101f360048036038101906101ee9190611be8565b610588565b005b61020f600480360381019061020a9190611ac9565b6105a8565b005b61022b60048036038101906102269190611ac9565b61062a565b6040516102389190611b37565b60405180910390f35b61025b60048036038101906102569190611c3b565b61063c565b6040516102689190611bcd565b60405180910390f35b6102796106f6565b6040516102869190611a71565b60405180910390f35b6102a960048036038101906102a49190611c94565b610788565b005b6102c560048036038101906102c09190611e09565b61079e565b005b6102e160048036038101906102dc9190611ac9565b6107c3565b6040516102ee9190611a71565b60405180910390f35b610311600480360381019061030c9190611f2d565b6108d6565b60405161031e9190611bcd565b60405180910390f35b610341600480360381019061033c9190611f76565b610916565b60405161034e91906119c6565b60405180910390f35b6000634906490660e01b7bffffffffffffffffffffffffffffffffffffffffffffffffffffffff1916827bffffffffffffffffffffffffffffffffffffffffffffffffffffffff191614806103b157506103b0826109aa565b5b9050919050565b6060600080546103c790611fe5565b80601f01602080910402602001604051908101604052809291908181526020018280546103f390611fe5565b80156104405780601f1061041557610100808354040283529160200191610440565b820191906000526020600020905b81548152906001019060200180831161042357829003601f168201915b5050505050905090565b600061045582610a8c565b5061045f82610b14565b9050919050565b6104788282610473610b51565b610b59565b5050565b6000600754905090565b600073ffffffffffffffffffffffffffffffffffffffff168273ffffffffffffffffffffffffffffffffffffffff16036104f85760006040517f64a0ae920000000000000000000000000000000000000000000000000000000081526004016104ef9190611b37565b60405180910390fd5b600061050c8383610507610b51565b610b6b565b90508373ffffffffffffffffffffffffffffffffffffffff168173ffffffffffffffffffffffffffffffffffffffff1614610582578382826040517f64283d7b00000000000000000000000000000000000000000000000000000000815260040161057993929190612016565b60405180910390fd5b50505050565b6105a38383836040518060200160405280600081525061079e565b505050565b3373ffffffffffffffffffffffffffffffffffffffff166105c88261062a565b73ffffffffffffffffffffffffffffffffffffffff161461061e576040517f08c379a000000000000000000000000000000000000000000000000000000000815260040161061590612099565b60405180910390fd5b61062781610d85565b50565b600061063582610a8c565b9050919050565b60008073ffffffffffffffffffffffffffffffffffffffff168273ffffffffffffffffffffffffffffffffffffffff16036106af5760006040517f89c62b640000000000000000000000000000000000000000000000000000000081526004016106a69190611b37565b60405180910390fd5b600360008373ffffffffffffffffffffffffffffffffffffffff1673ffffffffffffffffffffffffffffffffffffffff168152602001908152602001600020549050919050565b60606001805461070590611fe5565b80601f016020809104026020016040519081016040528092919081815260200182805461073190611fe5565b801561077e5780601f106107535761010080835404028352916020019161077e565b820191906000526020600020905b81548152906001019060200180831161076157829003601f168201915b5050505050905090565b61079a610793610b51565b8383610e0b565b5050565b6107a9848484610486565b6107bd6107b4610b51565b85858585610f7a565b50505050565b60606107ce82610a8c565b5060006006600084815260200190815260200160002080546107ef90611fe5565b80601f016020809104026020016040519081016040528092919081815260200182805461081b90611fe5565b80156108685780601f1061083d57610100808354040283529160200191610868565b820191906000526020600020905b81548152906001019060200180831161084b57829003601f168201915b50505050509050600061087961112b565b9050600081510361088e5781925050506108d1565b6000825111156108c35780826040516020016108ab9291906120f5565b604051602081830303815290604052925050506108d1565b6108cc84611142565b925050505b919050565b60006001600760008282546108eb9190612148565b925050819055506000600754905061090333826111ab565b61090d81846112a4565b80915050919050565b6000600560008473ffffffffffffffffffffffffffffffffffffffff1673ffffffffffffffffffffffffffffffffffffffff16815260200190815260200160002060008373ffffffffffffffffffffffffffffffffffffffff1673ffffffffffffffffffffffffffffffffffffffff16815260200190815260200160002060009054906101000a900460ff16905092915050565b60007f80ac58cd000000000000000000000000000000000000000000000000000000007bffffffffffffffffffffffffffffffffffffffffffffffffffffffff1916827bffffffffffffffffffffffffffffffffffffffffffffffffffffffff19161480610a7557507f5b5e139f000000000000000000000000000000000000000000000000000000007bffffffffffffffffffffffffffffffffffffffffffffffffffffffff1916827bffffffffffffffffffffffffffffffffffffffffffffffffffffffff1916145b80610a855750610a8482611300565b5b9050919050565b600080610a988361136a565b9050600073ffffffffffffffffffffffffffffffffffffffff168173ffffffffffffffffffffffffffffffffffffffff1603610b0b57826040517f7e273289000000000000000000000000000000000000000000000000000000008152600401610b029190611bcd565b60405180910390fd5b80915050919050565b60006004600083815260200190815260200160002060009054906101000a900473ffffffffffffffffffffffffffffffffffffffff169050919050565b600033905090565b610b6683838360016113a7565b505050565b600080610b778461136a565b9050600073ffffffffffffffffffffffffffffffffffffffff168373ffffffffffffffffffffffffffffffffffffffff1614610bb957610bb881848661156c565b5b600073ffffffffffffffffffffffffffffffffffffffff168173ffffffffffffffffffffffffffffffffffffffff1614610c4a57610bfb6000856000806113a7565b6001600360008373ffffffffffffffffffffffffffffffffffffffff1673ffffffffffffffffffffffffffffffffffffffff168152602001908152602001600020600082825403925050819055505b600073ffffffffffffffffffffffffffffffffffffffff168573ffffffffffffffffffffffffffffffffffffffff1614610ccd576001600360008773ffffffffffffffffffffffffffffffffffffffff1673ffffffffffffffffffffffffffffffffffffffff168152602001908152602001600020600082825401925050819055505b846002600086815260200190815260200160002060006101000a81548173ffffffffffffffffffffffffffffffffffffffff021916908373ffffffffffffffffffffffffffffffffffffffff160217905550838573ffffffffffffffffffffffffffffffffffffffff168273ffffffffffffffffffffffffffffffffffffffff167fddf252ad1be2c89b69c2b068fc378daa952ba7f163c4a11628f55a4df523b3ef60405160405180910390a4809150509392505050565b6000610d946000836000610b6b565b9050600073ffffffffffffffffffffffffffffffffffffffff168173ffffffffffffffffffffffffffffffffffffffff1603610e0757816040517f7e273289000000000000000000000000000000000000000000000000000000008152600401610dfe9190611bcd565b60405180910390fd5b5050565b600073ffffffffffffffffffffffffffffffffffffffff168273ffffffffffffffffffffffffffffffffffffffff1603610e7c57816040517f5b08ba18000000000000000000000000000000000000000000000000000000008152600401610e739190611b37565b60405180910390fd5b80600560008573ffffffffffffffffffffffffffffffffffffffff1673ffffffffffffffffffffffffffffffffffffffff16815260200190815260200160002060008473ffffffffffffffffffffffffffffffffffffffff1673ffffffffffffffffffffffffffffffffffffffff16815260200190815260200160002060006101000a81548160ff0219169083151502179055508173ffffffffffffffffffffffffffffffffffffffff168373ffffffffffffffffffffffffffffffffffffffff167f17307eab39ab6107e8899845ad3d59bd9653f200f220920489ca2b5937696c3183604051610f6d91906119c6565b60405180910390a3505050565b60008373ffffffffffffffffffffffffffffffffffffffff163b1115611124578273ffffffffffffffffffffffffffffffffffffffff1663150b7a02868685856040518563ffffffff1660e01b8152600401610fd994939291906121d1565b6020604051808303816000875af192505050801561101557506040513d601f19601f820116820180604052508101906110129190612232565b60015b611099573d8060008114611045576040519150601f19603f3d011682016040523d82523d6000602084013e61104a565b606091505b50600081510361109157836040517f64a0ae920000000000000000000000000000000000000000000000000000000081526004016110889190611b37565b60405180910390fd5b805160208201fd5b63150b7a0260e01b7bffffffffffffffffffffffffffffffffffffffffffffffffffffffff1916817bffffffffffffffffffffffffffffffffffffffffffffffffffffffff19161461112257836040517f64a0ae920000000000000000000000000000000000000000000000000000000081526004016111199190611b37565b60405180910390fd5b505b5050505050565b606060405180602001604052806000815250905090565b606061114d82610a8c565b50600061115861112b565b9050600081511161117857604051806020016040528060008152506111a3565b8061118284611630565b6040516020016111939291906120f5565b6040516020818303038152906040525b915050919050565b600073ffffffffffffffffffffffffffffffffffffffff168273ffffffffffffffffffffffffffffffffffffffff160361121d5760006040517f64a0ae920000000000000000000000000000000000000000000000000000000081526004016112149190611b37565b60405180910390fd5b600061122b83836000610b6b565b9050600073ffffffffffffffffffffffffffffffffffffffff168173ffffffffffffffffffffffffffffffffffffffff161461129f5760006040517f73c6ac6e0000000000000000000000000000000000000000000000000000000081526004016112969190611b37565b60405180910390fd5b505050565b806006600084815260200190815260200160002090816112c4919061240b565b507ff8e1a15aba9398e019f0b49df1a4fde98ee17ae345cb5f6b5e2c27f5033e8ce7826040516112f49190611bcd565b60405180910390a15050565b60007f01ffc9a7000000000000000000000000000000000000000000000000000000007bffffffffffffffffffffffffffffffffffffffffffffffffffffffff1916827bffffffffffffffffffffffffffffffffffffffffffffffffffffffff1916149050919050565b60006002600083815260200190815260200160002060009054906101000a900473ffffffffffffffffffffffffffffffffffffffff169050919050565b80806113e05750600073ffffffffffffffffffffffffffffffffffffffff168273ffffffffffffffffffffffffffffffffffffffff1614155b156115145760006113f084610a8c565b9050600073ffffffffffffffffffffffffffffffffffffffff168373ffffffffffffffffffffffffffffffffffffffff161415801561145b57508273ffffffffffffffffffffffffffffffffffffffff168173ffffffffffffffffffffffffffffffffffffffff1614155b801561146e575061146c8184610916565b155b156114b057826040517fa9fbf51f0000000000000000000000000000000000000000000000000000000081526004016114a79190611b37565b60405180910390fd5b811561151257838573ffffffffffffffffffffffffffffffffffffffff168273ffffffffffffffffffffffffffffffffffffffff167f8c5be1e5ebec7d5bd14f71427d1e84f3dd0314c0f7b2291e5b200ac8c7c3b92560405160405180910390a45b505b836004600085815260200190815260200160002060006101000a81548173ffffffffffffffffffffffffffffffffffffffff021916908373ffffffffffffffffffffffffffffffffffffffff16021790555050505050565b6115778383836116fe565b61162b57600073ffffffffffffffffffffffffffffffffffffffff168373ffffffffffffffffffffffffffffffffffffffff16036115ec57806040517f7e2732890000000000000000000000000000000000000000000000000000000081526004016115e39190611bcd565b60405180910390fd5b81816040517f177e802f0000000000000000000000000000000000000000000000000000000081526004016116229291906124dd565b60405180910390fd5b505050565b60606000600161163f846117bf565b01905060008167ffffffffffffffff81111561165e5761165d611cde565b5b6040519080825280601f01601f1916602001820160405280156116905781602001600182028036833780820191505090505b509050600082602083010190505b6001156116f3578080600190039150507f3031323334353637383961626364656600000000000000000000000000000000600a86061a8153600a85816116e7576116e6612506565b5b0494506000850361169e575b819350505050919050565b60008073ffffffffffffffffffffffffffffffffffffffff168373ffffffffffffffffffffffffffffffffffffffff16141580156117b657508273ffffffffffffffffffffffffffffffffffffffff168473ffffffffffffffffffffffffffffffffffffffff16148061177757506117768484610916565b5b806117b557508273ffffffffffffffffffffffffffffffffffffffff1661179d83610b14565b73ffffffffffffffffffffffffffffffffffffffff16145b5b90509392505050565b600080600090507a184f03e93ff9f4daa797ed6e38ed64bf6a1f010000000000000000831061181d577a184f03e93ff9f4daa797ed6e38ed64bf6a1f010000000000000000838161181357611812612506565b5b0492506040810190505b6d04ee2d6d415b85acef8100000000831061185a576d04ee2d6d415b85acef810000000083816118505761184f612506565b5b0492506020810190505b662386f26fc10000831061188957662386f26fc10000838161187f5761187e612506565b5b0492506010810190505b6305f5e10083106118b2576305f5e10083816118a8576118a7612506565b5b0492506008810190505b61271083106118d75761271083816118cd576118cc612506565b5b0492506004810190505b606483106118fa57606483816118f0576118ef612506565b5b0492506002810190505b600a8310611909576001810190505b80915050919050565b6000604051905090565b600080fd5b600080fd5b60007fffffffff0000000000000000000000000000000000000000000000000000000082169050919050565b61195b81611926565b811461196657600080fd5b50565b60008135905061197881611952565b92915050565b6000602082840312156119945761199361191c565b5b60006119a284828501611969565b91505092915050565b60008115159050919050565b6119c0816119ab565b82525050565b60006020820190506119db60008301846119b7565b92915050565b600081519050919050565b600082825260208201905092915050565b60005b83811015611a1b578082015181840152602081019050611a00565b60008484015250505050565b6000601f19601f8301169050919050565b6000611a43826119e1565b611a4d81856119ec565b9350611a5d8185602086016119fd565b611a6681611a27565b840191505092915050565b60006020820190508181036000830152611a8b8184611a38565b905092915050565b6000819050919050565b611aa681611a93565b8114611ab157600080fd5b50565b600081359050611ac381611a9d565b92915050565b600060208284031215611adf57611ade61191c565b5b6000611aed84828501611ab4565b91505092915050565b600073ffffffffffffffffffffffffffffffffffffffff82169050919050565b6000611b2182611af6565b9050919050565b611b3181611b16565b82525050565b6000602082019050611b4c6000830184611b28565b92915050565b611b5b81611b16565b8114611b6657600080fd5b50565b600081359050611b7881611b52565b92915050565b60008060408385031215611b9557611b9461191c565b5b6000611ba385828601611b69565b9250506020611bb485828601611ab4565b9150509250929050565b611bc781611a93565b82525050565b6000602082019050611be26000830184611bbe565b92915050565b600080600060608486031215611c0157611c0061191c565b5b6000611c0f86828701611b69565b9350506020611c2086828701611b69565b9250506040611c3186828701611ab4565b9150509250925092565b600060208284031215611c5157611c5061191c565b5b6000611c5f84828501611b69565b91505092915050565b611c71816119ab565b8114611c7c57600080fd5b50565b600081359050611c8e81611c68565b92915050565b60008060408385031215611cab57611caa61191c565b5b6000611cb985828601611b69565b9250506020611cca85828601611c7f565b9150509250929050565b600080fd5b600080fd5b7f4e487b7100000000000000000000000000000000000000000000000000000000600052604160045260246000fd5b611d1682611a27565b810181811067ffffffffffffffff82111715611d3557611d34611cde565b5b80604052505050565b6000611d48611912565b9050611d548282611d0d565b919050565b600067ffffffffffffffff821115611d7457611d73611cde565b5b611d7d82611a27565b9050602081019050919050565b82818337600083830152505050565b6000611dac611da784611d59565b611d3e565b905082815260208101848484011115611dc857611dc7611cd9565b5b611dd3848285611d8a565b509392505050565b600082601f830112611df057611def611cd4565b5b8135611e00848260208601611d99565b91505092915050565b60008060008060808587031215611e2357611e2261191c565b5b6000611e3187828801611b69565b9450506020611e4287828801611b69565b9350506040611e5387828801611ab4565b925050606085013567ffffffffffffffff811115611e7457611e73611921565b5b611e8087828801611ddb565b91505092959194509250565b600067ffffffffffffffff821115611ea757611ea6611cde565b5b611eb082611a27565b9050602081019050919050565b6000611ed0611ecb84611e8c565b611d3e565b905082815260208101848484011115611eec57611eeb611cd9565b5b611ef7848285611d8a565b509392505050565b600082601f830112611f1457611f13611cd4565b5b8135611f24848260208601611ebd565b91505092915050565b600060208284031215611f4357611f4261191c565b5b600082013567ffffffffffffffff811115611f6157611f60611921565b5b611f6d84828501611eff565b91505092915050565b60008060408385031215611f8d57611f8c61191c565b5b6000611f9b85828601611b69565b9250506020611fac85828601611b69565b9150509250929050565b7f4e487b7100000000000000000000000000000000000000000000000000000000600052602260045260246000fd5b60006002820490506001821680611ffd57607f821691505b6020821081036120105761200f611fb6565b5b50919050565b600060608201905061202b6000830186611b28565b6120386020830185611bbe565b6120456040830184611b28565b949350505050565b7f596f7520617265206e6f7420746865206f776e65720000000000000000000000600082015250565b60006120836015836119ec565b915061208e8261204d565b602082019050919050565b600060208201905081810360008301526120b281612076565b9050919050565b600081905092915050565b60006120cf826119e1565b6120d981856120b9565b93506120e98185602086016119fd565b80840191505092915050565b600061210182856120c4565b915061210d82846120c4565b91508190509392505050565b7f4e487b7100000000000000000000000000000000000000000000000000000000600052601160045260246000fd5b600061215382611a93565b915061215e83611a93565b925082820190508082111561217657612175612119565b5b92915050565b600081519050919050565b600082825260208201905092915050565b60006121a38261217c565b6121ad8185612187565b93506121bd8185602086016119fd565b6121c681611a27565b840191505092915050565b60006080820190506121e66000830187611b28565b6121f36020830186611b28565b6122006040830185611bbe565b81810360608301526122128184612198565b905095945050505050565b60008151905061222c81611952565b92915050565b6000602082840312156122485761224761191c565b5b60006122568482850161221d565b91505092915050565b60008190508160005260206000209050919050565b60006020601f8301049050919050565b600082821b905092915050565b6000600883026122c17fffffffffffffffffffffffffffffffffffffffffffffffffffffffffffffffff82612284565b6122cb8683612284565b95508019841693508086168417925050509392505050565b6000819050919050565b60006123086123036122fe84611a93565b6122e3565b611a93565b9050919050565b6000819050919050565b612322836122ed565b61233661232e8261230f565b848454612291565b825550505050565b600090565b61234b61233e565b612356818484612319565b505050565b5b8181101561237a5761236f600082612343565b60018101905061235c565b5050565b601f8211156123bf576123908161225f565b61239984612274565b810160208510156123a8578190505b6123bc6123b485612274565b83018261235b565b50505b505050565b600082821c905092915050565b60006123e2600019846008026123c4565b1980831691505092915050565b60006123fb83836123d1565b9150826002028217905092915050565b612414826119e1565b67ffffffffffffffff81111561242d5761242c611cde565b5b6124378254611fe5565b61244282828561237e565b600060209050601f8311600181146124755760008415612463578287015190505b61246d85826123ef565b8655506124d5565b601f1984166124838661225f565b60005b828110156124ab57848901518255600182019150602085019450602081019050612486565b868310156124c857848901516124c4601f8916826123d1565b8355505b6001600288020188555050505b505050505050565b60006040820190506124f26000830185611b28565b6124ff6020830184611bbe565b9392505050565b7f4e487b7100000000000000000000000000000000000000000000000000000000600052601260045260246000fdfea2646970667358221220fc146987c0f597b484fbcab902c80876c16ed1d030e8dd17c3a13c716aae19dd64736f6c634300081c0033",
  "linkReferences": {},
  "deployedLinkReferences": {}
}