{
  "_format": "hh-sol-artifact-1",
  "contractName": "Escrow",
  "sourceName": "contracts/Escrow.sol",
  "abi": [
    {
      "inputs": [
        {
          "internalType": "address",
          "name": "_nftAddress",
          "type": "address"
        },
        {
          "internalType": "address",
          "name": "_seller",
          "type": "address"
        },
        {
          "internalType": "address",
          "name": "_verifier",
          "type": "address"
        }
      ],
      "stateMutability": "nonpayable",
      "type": "constructor"
    },
    {
      "inputs": [
        {
          "internalType": "uint256",
          "name": "",
          "type": "uint256"
        },
        {
          "internalType": "address",
          "name": "",
          "type": "address"
        }
      ],
      "name": "approval",
      "outputs": [
        {
          "internalType": "bool",
          "name": "",
          "type": "bool"
        }
      ],
      "stateMutability": "view",
      "type": "function"
    },
    {
      "inputs": [
        {
          "internalType": "uint256",
          "name": "_nftId",
          "type": "uint256"
        }
      ],
      "name": "approveSale",
      "outputs": [],
      "stateMutability": "nonpayable",
      "type": "function"
    },
    {
      "inputs": [],
      "name": "artist",
      "outputs": [
        {
          "internalType": "address",
          "name": "",
          "type": "address"
        }
      ],
      "stateMutability": "view",
      "type": "function"
    },
    {
      "inputs": [
        {
          "internalType": "uint256",
          "name": "",
          "type": "uint256"
        }
      ],
      "name": "buyer",
      "outputs": [
        {
          "internalType": "address",
          "name": "",
          "type": "address"
        }
      ],
      "stateMutability": "view",
      "type": "function"
    },
    {
      "inputs": [
        {
          "internalType": "uint256",
          "name": "_nftID",
          "type": "uint256"
        }
      ],
      "name": "cancelSale",
      "outputs": [],
      "stateMutability": "nonpayable",
      "type": "function"
    },
    {
      "inputs": [
        {
          "internalType": "uint256",
          "name": "_nftId",
          "type": "uint256"
        }
      ],
      "name": "depositEscrow",
      "outputs": [],
      "stateMutability": "payable",
      "type": "function"
    },
    {
      "inputs": [
        {
          "internalType": "uint256",
          "name": "",
          "type": "uint256"
        }
      ],
      "name": "escrowAmount",
      "outputs": [
        {
          "internalType": "uint256",
          "name": "",
          "type": "uint256"
        }
      ],
      "stateMutability": "view",
      "type": "function"
    },
    {
      "inputs": [
        {
          "internalType": "uint256",
          "name": "",
          "type": "uint256"
        }
      ],
      "name": "escrowDeposited",
      "outputs": [
        {
          "internalType": "uint256",
          "name": "",
          "type": "uint256"
        }
      ],
      "stateMutability": "view",
      "type": "function"
    },
    {
      "inputs": [
        {
          "internalType": "uint256",
          "name": "_nftID",
          "type": "uint256"
        }
      ],
      "name": "finalizeSale",
      "outputs": [],
      "stateMutability": "nonpayable",
      "type": "function"
    },
    {
      "inputs": [],
      "name": "getBalance",
      "outputs": [
        {
          "internalType": "uint256",
          "name": "",
          "type": "uint256"
        }
      ],
      "stateMutability": "view",
      "type": "function"
    },
    {
      "inputs": [
        {
          "internalType": "uint256",
          "name": "",
          "type": "uint256"
        }
      ],
      "name": "isListed",
      "outputs": [
        {
          "internalType": "bool",
          "name": "",
          "type": "bool"
        }
      ],
      "stateMutability": "view",
      "type": "function"
    },
    {
      "inputs": [
        {
          "internalType": "uint256",
          "name": "",
          "type": "uint256"
        }
      ],
      "name": "isVerified",
      "outputs": [
        {
          "internalType": "bool",
          "name": "",
          "type": "bool"
        }
      ],
      "stateMutability": "view",
      "type": "function"
    },
    {
      "inputs": [
        {
          "internalType": "uint256",
          "name": "_nftId",
          "type": "uint256"
        },
        {
          "internalType": "uint256",
          "name": "_purchasePrice",
          "type": "uint256"
        },
        {
          "internalType": "uint256",
          "name": "_escrowPrice",
          "type": "uint256"
        }
      ],
      "name": "list",
      "outputs": [],
      "stateMutability": "payable",
      "type": "function"
    },
    {
      "inputs": [],
      "name": "nftAddress",
      "outputs": [
        {
          "internalType": "address",
          "name": "",
          "type": "address"
        }
      ],
      "stateMutability": "view",
      "type": "function"
    },
    {
      "inputs": [
        {
          "internalType": "uint256",
          "name": "",
          "type": "uint256"
        }
      ],
      "name": "purchaseAmount",
      "outputs": [
        {
          "internalType": "uint256",
          "name": "",
          "type": "uint256"
        }
      ],
      "stateMutability": "view",
      "type": "function"
    },
    {
      "inputs": [],
      "name": "verifier",
      "outputs": [
        {
          "internalType": "address",
          "name": "",
          "type": "address"
        }
      ],
      "stateMutability": "view",
      "type": "function"
    },
    {
      "inputs": [
        {
          "internalType": "uint256",
          "name": "_nftId",
          "type": "uint256"
        },
        {
          "internalType": "bool",
          "name": "_passed",
          "type": "bool"
        }
      ],
      "name": "verifyStatus",
      "outputs": [],
      "stateMutability": "nonpayable",
      "type": "function"
    }
  ],
  "bytecode": "0x608060405234801561001057600080fd5b50604051611e34380380611e348339818101604052810190610032919061015f565b826000806101000a81548173ffffffffffffffffffffffffffffffffffffffff021916908373ffffffffffffffffffffffffffffffffffffffff16021790555081600160006101000a81548173ffffffffffffffffffffffffffffffffffffffff021916908373ffffffffffffffffffffffffffffffffffffffff16021790555080600260006101000a81548173ffffffffffffffffffffffffffffffffffffffff021916908373ffffffffffffffffffffffffffffffffffffffff1602179055505050506101b2565b600080fd5b600073ffffffffffffffffffffffffffffffffffffffff82169050919050565b600061012c82610101565b9050919050565b61013c81610121565b811461014757600080fd5b50565b60008151905061015981610133565b92915050565b600080600060608486031215610178576101776100fc565b5b60006101868682870161014a565b93505060206101978682870161014a565b92505060406101a88682870161014a565b9150509250925092565b611c73806101c16000396000f3fe6080604052600436106100fe5760003560e01c80635d19e56c11610095578063bd94b00511610064578063bd94b0051461033a578063cb991efe14610363578063cc8f07081461037f578063fc3bb8c2146103bc578063fcce4883146103f9576100fe565b80635d19e56c1461026e578063756a079d146102ab578063aa929380146102d4578063b848de35146102fd576100fe565b806337b6d96b116100d157806337b6d96b1461019e57806343bc1612146101db5780634dd4acaf146102065780635bf8633a14610243576100fe565b806312065fe01461010357806314a72feb1461012e57806319aeb490146101575780632b7ac3f314610173575b600080fd5b34801561010f57600080fd5b50610118610436565b60405161012591906113d7565b60405180910390f35b34801561013a57600080fd5b5061015560048036038101906101509190611423565b61043e565b005b610171600480360381019061016c9190611450565b6104aa565b005b34801561017f57600080fd5b5061018861062a565b60405161019591906114e4565b60405180910390f35b3480156101aa57600080fd5b506101c560048036038101906101c09190611423565b610650565b6040516101d2919061151a565b60405180910390f35b3480156101e757600080fd5b506101f0610670565b6040516101fd91906114e4565b60405180910390f35b34801561021257600080fd5b5061022d60048036038101906102289190611423565b610696565b60405161023a91906114e4565b60405180910390f35b34801561024f57600080fd5b506102586106c9565b60405161026591906114e4565b60405180910390f35b34801561027a57600080fd5b5061029560048036038101906102909190611423565b6106ed565b6040516102a291906113d7565b60405180910390f35b3480156102b757600080fd5b506102d260048036038101906102cd9190611561565b610705565b005b3480156102e057600080fd5b506102fb60048036038101906102f69190611423565b6107c4565b005b34801561030957600080fd5b50610324600480360381019061031f91906115cd565b610c41565b604051610331919061151a565b60405180910390f35b34801561034657600080fd5b50610361600480360381019061035c9190611423565b610c70565b005b61037d60048036038101906103789190611423565b6111a9565b005b34801561038b57600080fd5b506103a660048036038101906103a19190611423565b61136e565b6040516103b391906113d7565b60405180910390f35b3480156103c857600080fd5b506103e360048036038101906103de9190611423565b611386565b6040516103f091906113d7565b60405180910390f35b34801561040557600080fd5b50610420600480360381019061041b9190611423565b61139e565b60405161042d919061151a565b60405180910390f35b600047905090565b60016009600083815260200190815260200160002060003373ffffffffffffffffffffffffffffffffffffffff1673ffffffffffffffffffffffffffffffffffffffff16815260200190815260200160002060006101000a81548160ff02191690831515021790555050565b600160009054906101000a900473ffffffffffffffffffffffffffffffffffffffff1673ffffffffffffffffffffffffffffffffffffffff163373ffffffffffffffffffffffffffffffffffffffff161461053a576040517f08c379a00000000000000000000000000000000000000000000000000000000081526004016105319061166a565b60405180910390fd5b60008054906101000a900473ffffffffffffffffffffffffffffffffffffffff1673ffffffffffffffffffffffffffffffffffffffff166323b872dd3330866040518463ffffffff1660e01b81526004016105979392919061168a565b600060405180830381600087803b1580156105b157600080fd5b505af11580156105c5573d6000803e3d6000fd5b5050505060016003600085815260200190815260200160002060006101000a81548160ff021916908315150217905550816004600085815260200190815260200160002081905550806005600085815260200190815260200160002081905550505050565b600260009054906101000a900473ffffffffffffffffffffffffffffffffffffffff1681565b60086020528060005260406000206000915054906101000a900460ff1681565b600160009054906101000a900473ffffffffffffffffffffffffffffffffffffffff1681565b60066020528060005260406000206000915054906101000a900473ffffffffffffffffffffffffffffffffffffffff1681565b60008054906101000a900473ffffffffffffffffffffffffffffffffffffffff1681565b60056020528060005260406000206000915090505481565b600260009054906101000a900473ffffffffffffffffffffffffffffffffffffffff1673ffffffffffffffffffffffffffffffffffffffff163373ffffffffffffffffffffffffffffffffffffffff1614610795576040517f08c379a000000000000000000000000000000000000000000000000000000000815260040161078c90611733565b60405180910390fd5b806008600084815260200190815260200160002060006101000a81548160ff0219169083151502179055505050565b600960008281526020019081526020016000206000600160009054906101000a900473ffffffffffffffffffffffffffffffffffffffff1673ffffffffffffffffffffffffffffffffffffffff1673ffffffffffffffffffffffffffffffffffffffff16815260200190815260200160002060009054906101000a900460ff16610883576040517f08c379a000000000000000000000000000000000000000000000000000000000815260040161087a9061179f565b60405180910390fd5b6009600082815260200190815260200160002060006006600084815260200190815260200160002060009054906101000a900473ffffffffffffffffffffffffffffffffffffffff1673ffffffffffffffffffffffffffffffffffffffff1673ffffffffffffffffffffffffffffffffffffffff16815260200190815260200160002060009054906101000a900460ff16610953576040517f08c379a000000000000000000000000000000000000000000000000000000000815260040161094a9061180b565b60405180910390fd5b600960008281526020019081526020016000206000600260009054906101000a900473ffffffffffffffffffffffffffffffffffffffff1673ffffffffffffffffffffffffffffffffffffffff1673ffffffffffffffffffffffffffffffffffffffff16815260200190815260200160002060009054906101000a900460ff16610a12576040517f08c379a0000000000000000000000000000000000000000000000000000000008152600401610a0990611877565b60405180910390fd5b60006004600083815260200190815260200160002054905080471015610a6d576040517f08c379a0000000000000000000000000000000000000000000000000000000008152600401610a64906118e3565b60405180910390fd5b60008054906101000a900473ffffffffffffffffffffffffffffffffffffffff1673ffffffffffffffffffffffffffffffffffffffff166323b872dd306006600086815260200190815260200160002060009054906101000a900473ffffffffffffffffffffffffffffffffffffffff16856040518463ffffffff1660e01b8152600401610afd9392919061168a565b600060405180830381600087803b158015610b1757600080fd5b505af1158015610b2b573d6000803e3d6000fd5b505050506000600160009054906101000a900473ffffffffffffffffffffffffffffffffffffffff1673ffffffffffffffffffffffffffffffffffffffff166004600085815260200190815260200160002054604051610b8a90611934565b60006040518083038185875af1925050503d8060008114610bc7576040519150601f19603f3d011682016040523d82523d6000602084013e610bcc565b606091505b5050905080610c10576040517f08c379a0000000000000000000000000000000000000000000000000000000008152600401610c0790611995565b60405180910390fd5b60006003600085815260200190815260200160002060006101000a81548160ff021916908315150217905550505050565b60096020528160005260406000206020528060005260406000206000915091509054906101000a900460ff1681565b6003600082815260200190815260200160002060009054906101000a900460ff16610cd0576040517f08c379a0000000000000000000000000000000000000000000000000000000008152600401610cc790611a01565b60405180910390fd5b6006600082815260200190815260200160002060009054906101000a900473ffffffffffffffffffffffffffffffffffffffff1673ffffffffffffffffffffffffffffffffffffffff163373ffffffffffffffffffffffffffffffffffffffff1603610eb757600060076000838152602001908152602001600020541115610e5f5760006006600083815260200190815260200160002060009054906101000a900473ffffffffffffffffffffffffffffffffffffffff1673ffffffffffffffffffffffffffffffffffffffff166007600084815260200190815260200160002054604051610dbe90611934565b60006040518083038185875af1925050503d8060008114610dfb576040519150601f19603f3d011682016040523d82523d6000602084013e610e00565b606091505b5050905080610e44576040517f08c379a0000000000000000000000000000000000000000000000000000000008152600401610e3b90611a6d565b60405180910390fd5b60006007600084815260200190815260200160002081905550505b60006006600083815260200190815260200160002060006101000a81548173ffffffffffffffffffffffffffffffffffffffff021916908373ffffffffffffffffffffffffffffffffffffffff1602179055506111a6565b600160009054906101000a900473ffffffffffffffffffffffffffffffffffffffff1673ffffffffffffffffffffffffffffffffffffffff163373ffffffffffffffffffffffffffffffffffffffff160361116a5760008054906101000a900473ffffffffffffffffffffffffffffffffffffffff1673ffffffffffffffffffffffffffffffffffffffff166323b872dd30600160009054906101000a900473ffffffffffffffffffffffffffffffffffffffff16846040518463ffffffff1660e01b8152600401610f8b9392919061168a565b600060405180830381600087803b158015610fa557600080fd5b505af1158015610fb9573d6000803e3d6000fd5b505050506000600760008381526020019081526020016000205411156110e65760006006600083815260200190815260200160002060009054906101000a900473ffffffffffffffffffffffffffffffffffffffff1673ffffffffffffffffffffffffffffffffffffffff16600760008481526020019081526020016000205460405161104590611934565b60006040518083038185875af1925050503d8060008114611082576040519150601f19603f3d011682016040523d82523d6000602084013e611087565b606091505b50509050806110cb576040517f08c379a00000000000000000000000000000000000000000000000000000000081526004016110c290611a6d565b60405180910390fd5b60006007600084815260200190815260200160002081905550505b60006003600083815260200190815260200160002060006101000a81548160ff02191690831515021790555060006006600083815260200190815260200160002060006101000a81548173ffffffffffffffffffffffffffffffffffffffff021916908373ffffffffffffffffffffffffffffffffffffffff1602179055506111a5565b6040517f08c379a000000000000000000000000000000000000000000000000000000000815260040161119c90611ad9565b60405180910390fd5b5b50565b6003600082815260200190815260200160002060009054906101000a900460ff16611209576040517f08c379a000000000000000000000000000000000000000000000000000000000815260040161120090611b45565b60405180910390fd5b600073ffffffffffffffffffffffffffffffffffffffff166006600083815260200190815260200160002060009054906101000a900473ffffffffffffffffffffffffffffffffffffffff1673ffffffffffffffffffffffffffffffffffffffff16146112ab576040517f08c379a00000000000000000000000000000000000000000000000000000000081526004016112a290611bb1565b60405180910390fd5b6005600082815260200190815260200160002054341015611301576040517f08c379a00000000000000000000000000000000000000000000000000000000081526004016112f890611c1d565b60405180910390fd5b346007600083815260200190815260200160002081905550336006600083815260200190815260200160002060006101000a81548173ffffffffffffffffffffffffffffffffffffffff021916908373ffffffffffffffffffffffffffffffffffffffff16021790555050565b60046020528060005260406000206000915090505481565b60076020528060005260406000206000915090505481565b60036020528060005260406000206000915054906101000a900460ff1681565b6000819050919050565b6113d1816113be565b82525050565b60006020820190506113ec60008301846113c8565b92915050565b600080fd5b611400816113be565b811461140b57600080fd5b50565b60008135905061141d816113f7565b92915050565b600060208284031215611439576114386113f2565b5b60006114478482850161140e565b91505092915050565b600080600060608486031215611469576114686113f2565b5b60006114778682870161140e565b93505060206114888682870161140e565b92505060406114998682870161140e565b9150509250925092565b600073ffffffffffffffffffffffffffffffffffffffff82169050919050565b60006114ce826114a3565b9050919050565b6114de816114c3565b82525050565b60006020820190506114f960008301846114d5565b92915050565b60008115159050919050565b611514816114ff565b82525050565b600060208201905061152f600083018461150b565b92915050565b61153e816114ff565b811461154957600080fd5b50565b60008135905061155b81611535565b92915050565b60008060408385031215611578576115776113f2565b5b60006115868582860161140e565b92505060206115978582860161154c565b9150509250929050565b6115aa816114c3565b81146115b557600080fd5b50565b6000813590506115c7816115a1565b92915050565b600080604083850312156115e4576115e36113f2565b5b60006115f28582860161140e565b9250506020611603858286016115b8565b9150509250929050565b600082825260208201905092915050565b7f4f6e6c792073656c6c65722063616e2063616c6c2074686973206d6574686f64600082015250565b600061165460208361160d565b915061165f8261161e565b602082019050919050565b6000602082019050818103600083015261168381611647565b9050919050565b600060608201905061169f60008301866114d5565b6116ac60208301856114d5565b6116b960408301846113c8565b949350505050565b7f4f6e6c79206172742076657269666965722063616e2063616c6c20746869732060008201527f6d6574686f640000000000000000000000000000000000000000000000000000602082015250565b600061171d60268361160d565b9150611728826116c1565b604082019050919050565b6000602082019050818103600083015261174c81611710565b9050919050565b7f53656c6c657220686173206e6f7420617070726f766564000000000000000000600082015250565b600061178960178361160d565b915061179482611753565b602082019050919050565b600060208201905081810360008301526117b88161177c565b9050919050565b7f427579657220686173206e6f7420617070726f76656400000000000000000000600082015250565b60006117f560168361160d565b9150611800826117bf565b602082019050919050565b60006020820190508181036000830152611824816117e8565b9050919050565b7f566572696669657220686173206e6f7420617070726f76656400000000000000600082015250565b600061186160198361160d565b915061186c8261182b565b602082019050919050565b6000602082019050818103600083015261189081611854565b9050919050565b7f496e73756666696369656e742066756e647320696e20657363726f7700000000600082015250565b60006118cd601c8361160d565b91506118d882611897565b602082019050919050565b600060208201905081810360008301526118fc816118c0565b9050919050565b600081905092915050565b50565b600061191e600083611903565b91506119298261190e565b600082019050919050565b600061193f82611911565b9150819050919050565b7f5061796d656e7420746f2073656c6c6572206661696c65640000000000000000600082015250565b600061197f60188361160d565b915061198a82611949565b602082019050919050565b600060208201905081810360008301526119ae81611972565b9050919050565b7f4e6f74206c697374656400000000000000000000000000000000000000000000600082015250565b60006119eb600a8361160d565b91506119f6826119b5565b602082019050919050565b60006020820190508181036000830152611a1a816119de565b9050919050565b7f526566756e64206661696c656400000000000000000000000000000000000000600082015250565b6000611a57600d8361160d565b9150611a6282611a21565b602082019050919050565b60006020820190508181036000830152611a8681611a4a565b9050919050565b7f4e6f7420617574686f72697a6564000000000000000000000000000000000000600082015250565b6000611ac3600e8361160d565b9150611ace82611a8d565b602082019050919050565b60006020820190508181036000830152611af281611ab6565b9050919050565b7f70726f7065727479206e6f74206c697374656420796574000000000000000000600082015250565b6000611b2f60178361160d565b9150611b3a82611af9565b602082019050919050565b60006020820190508181036000830152611b5e81611b22565b9050919050565b7f616c726561647920726567697374657265640000000000000000000000000000600082015250565b6000611b9b60128361160d565b9150611ba682611b65565b602082019050919050565b60006020820190508181036000830152611bca81611b8e565b9050919050565b7f6e6f742073756666696369656e7420657363726f770000000000000000000000600082015250565b6000611c0760158361160d565b9150611c1282611bd1565b602082019050919050565b60006020820190508181036000830152611c3681611bfa565b905091905056fea26469706673582212207183b26215eb7093612cd610e3b8a2ca4046d1292ed80c4abcda4096db778f9764736f6c634300081c0033",
  "linkReferences": {},
  "deployedLinkReferences": {}
}